:020000020000FC
:0200000020C01E
:1000400066C408E00EBF0FEF0DBF0FE307B90FE75F
:100050000AB904B1006204B940982D9800E00F611C
:1000600005B900E0009316010093170100931801F1
:100070000093190100931A0100931B0101E0009302
:100080001C0100E000931D0101E000931E0100E04F
:1000900000931F0101E0009320010093210100E083
:1000A0000093220100932301009324010093250172
:1000B0000093260100932701009328010093290152
:1000C00000932A01459800E000932B0100932C0136
:1000D00000932E0100E00093340101E000932D0114
:1000E00001E000932F010093300100933101009350
:1000F00032010093330144D36ED200E004BD05E029
:1001000005BD01E000936E0078940CD050D399D0D7
:10011000C2D018D000913401003019F0023009F03B
:10012000F8D0F3CF0F931F9300912901013039F4D8
:1001300000912A010E3110F05AD001C0409A1F914F
:100140000F9108950F931F9300913401003009F02F
:100150004BC003B101FD18C0109132011130A1F460
:1001600010E01093320114E0109334011091280133
:10017000113051F010911B011093270110911A01B9
:10018000109326013DD000C001FF03C011E0109381
:10019000320100FD0DC010912F01113049F410E023
:1001A00010932F0110912901113011F420D000C0BB
:1001B00000FF03C011E010932F0103FD10C0109148
:1001C0003001113061F410E01093300110E0109311
:1001D00028012D9810912901113009F408D003FF4E
:1001E00003C011E0109330011F910F9108950F93F8
:1001F000409800E00093290100932A010F9108958F
:100200000F931F932F930091270110E00A3020F0E5
:1002100013950A500A30E4F7009324011093250146
:100220000091260110E00A3020F013950A500A30A0
:10023000E4F700932201109323012F911F910F9156
:1002400008950F931F93109134011130C9F01330AA
:10025000B9F01430A9F003B104FD15C010913101BB
:10026000113071F410E0109331011091340110300D
:1002700021F412E01093340103C010E01093340114
:100280001F910F9108951091310104FFF9CF11E0F2
:1002900010933101F5CF0F931F9303B102FD31C0CD
:1002A00010913301113091F510E01093330110914A
:1002B0003401103049F0113059F0123091F0133000
:1002C000A1F01430B1F022C011E0109334011EC02F
:1002D00010E01093340110E010932C0110932B01C7
:1002E00015C013E01093340111C012E010933401D3
:1002F0000DC011E0109328012D9A10E010933401E5
:1003000005C002FF03C011E0109333011F910F914C
:1003100008950F931F932F9303B11091340111305F
:1003200029F0133029F0143029F005C08AD003C019
:10033000D0D001C004D02F911F910F9108950F9339
:100340001F932F9303B100FD09C010912F011130AD
:1003500029F410E010932F013AD000C000FF03C031
:1003600011E010932F0103FD09C0109130011130ED
:1003700029F410E01093300138D000C003FF03C00F
:1003800011E01093300104FD09C0109131011130CA
:1003900029F410E01093310137D000C004FF03C0EE
:1003A00011E01093310101FD09C0109132011130AB
:1003B00029F410E01093320135D000C001FF03C0D2
:1003C00011E0109332012F911F910F9108950F9317
:1003D0001F930091260103950C3308F000E0009371
:1003E00026010EDF1F910F9108950F931F93009127
:1003F0002601003011F40BE301C00A950093260199
:10040000FFDE1F910F9108950F931F930091270115
:100410000395083108F000E000932701F1DE1F91F9
:100420000F9108950F931F9300912701003011F44D
:1004300007E101C00A9500932701E2DE1F910F91A9
:1004400008950F931F932F9303B100FD09C01091DE
:100450002F01113029F410E010932F0182D000C039
:1004600000FF03C011E010932F0103FD09C010919C
:100470003001113029F410E01093300180D000C019
:1004800003FF03C011E01093300104FD09C0109177
:100490003101113029F410E0109331017FD000C0F8
:1004A00004FF03C011E01093310101FD09C0109158
:1004B0003201113029F410E0109332017DD000C0D8
:1004C00001FF03C011E0109332012F911F910F9192
:1004D00008950F931F932F9303B100FD09C010914E
:1004E0002F01113029F410E010932F0199D000C092
:1004F00000FF03C011E010932F0103FD09C010910C
:100500003001113029F410E010933001A2D000C066
:1005100003FF03C011E01093300104FD09C01091E6
:100520003101113029F410E010933101A6D000C040
:1005300004FF03C011E01093310101FD09C01091C7
:100540003201113029F410E010933201A5D000C01F
:1005500001FF03C011E0109332012F911F910F9101
:1005600008950F931F9300911A0103950C3308F01F
:1005700000E000931A01B4D01F910F9108950F93DA
:100580001F9300911A01003011F40BE301C00A958A
:1005900000931A01A5D01F910F9108950F931F93F7
:1005A00000911B010395083108F000E000931B0146
:1005B000ABD01F910F9108950F931F9300911B01D2
:1005C000003011F407E101C00A9500931B019CD093
:1005D0001F910F910895F1E0EAE00FE101930CE122
:1005E00001930FE101930EE101930FE101930EE1FD
:1005F00001930FE101930FE101930EE101930FE1EC
:1006000001930EE101930FE1019308951F930A9561
:10061000F1E0EAE0E00F08F4F39500811F910895FE
:100620000F931F932F9300912001039510912101A7
:10063000202F012FEBDF102F022F011718F01017BA
:1006400009F001E00093200173D02F911F910F91C9
:1006500008950F931F932F9300912001013029F4E7
:1006600010912101012FD2DF01C00A9500932001D2
:100670005FD02F911F910F9108950F931F930091B9
:10068000210103950D3008F001E00093210164D0B1
:1006900013D01F910F9108950F931F930091210183
:1006A000013011F40CE001C00A950093210154D0EF
:1006B00003D01F910F9108950F931F930091210173
:1006C000A5DF102F00912001011738F0101709F451
:1006D00004C0012F009320012BD01F910F9108958A
:1006E0000F931F932F9300911A0110E00A3020F00E
:1006F00013950A500A30E4F700931601109317017E
:100700002F911F910F9108950F931F932F93009195
:100710001B0110E00A3020F013950A500A30E4F76C
:1007200000931801109319012F911F910F910895B3
:100730000F931F932F930091200110E00A3020F0B7
:1007400013950A500A30E4F700931C0110931D0121
:100750002F911F910F9108950F931F932F93009145
:10076000210110E00A3020F013950A500A30E4F716
:1007700000931E0110931F012F911F910F91089557
:10078000F1E0E0E00FE3019306E001930BE5019354
:100790000FE4019306E601930DE601930DE7019343
:1007A00007E001930FE701930FE60193089510917D
:1007B0003401103049F0113049F0123069F0133033
:1007C00069F0143089F000C017D0089500912D0110
:1007D000003081F011D008952CD0089500912D01A2
:1007E000003041F026D0089500912D01003011F025
:1007F0003DD0089558D0089556D00091160158D094
:100800000BB9459A5CD04FD00091170151D00BB96C
:10081000449A55D048D0009118014AD00BB9439A58
:100820004ED041D00091190143D00BB9429A47D024
:10083000089539D000911C013BD00BB9459A3FD0A7
:1008400032D000911D0134D00BB9449A38D02BD04E
:1008500000911E012DD00BB9439A31D024D00091C4
:100860001F0126D00BB9429A2AD008951CD00091BE
:1008700022011ED00BB9459A22D015D00091230138
:1008800017D00BB9449A1BD00ED00091240110D080
:100890000BB9439A14D007D00091250109D00BB9A8
:1008A000429A0DD0089545984498439842980895E7
:1008B000F1E0E0E0E00F08F4F3950081089512E321
:1008C0001A95F1F7089520913401213091F02330E9
:1008D00081F0243071F000912D01003029F0419811
:1008E00000E000932D010895419A01E000932D014D
:1008F000089500912D01003029F0419800E0009307
:100900002D010895419A01E000932D0108950F9360
:100910001F932F931FB71F9300912E0103950E3144
:1009200021F400E000932E01CEDF00932E012091F0
:100930003401213039F1233029F12091290121306E
:1009400049F400912B010D3329F420912A012395BC
:1009500020932A0100912B0103950D3389F400E0C7
:1009600000932B0100912C0103950C3331F400E02E
:1009700000932C012DD00CD005C000932C0102C097
:1009800000932B011F911FBF2F911F910F9118955D
:100990000F931F93009128010030B9F000912901B5
:1009A000013099F000911B0110912701011769F4A2
:1009B00000911A0110912601011739F401E000930A
:1009C000290100E000932A01409A1F910F91089598
:1009D0000F931F932F9300911A0103950C3391F4F9
:1009E00000E000931A0100911B010395083121F4E6
:1009F00000E000931B0110D000931B0185DE00E096
:100A00000C3339F400931A016BDE2F911F910F9173
:100A1000089500911A01F6CF0F931F932F93009121
:100A20002001039510912101202F012FEFDD102FC0
:100A3000022F011780F0101771F001E000932001E0
:100A40000091210103950D3008F001E00093210190
:100A500083DE6EDE03C0009320016ADE2F911F91BA
:040A60000F91089555
:00000001FF
